{
  "_format": "hh-sol-artifact-1",
  "contractName": "CandyMachine",
  "sourceName": "contracts/Candy.sol",
  "abi": [
    {
      "inputs": [],
      "stateMutability": "nonpayable",
      "type": "constructor"
    },
    {
      "inputs": [
        {
          "internalType": "uint256",
          "name": "_amount",
          "type": "uint256"
        }
      ],
      "name": "buyCandy",
      "outputs": [],
      "stateMutability": "payable",
      "type": "function"
    },
    {
      "inputs": [],
      "name": "getCandyBalance",
      "outputs": [
        {
          "internalType": "uint256",
          "name": "",
          "type": "uint256"
        }
      ],
      "stateMutability": "view",
      "type": "function"
    },
    {
      "inputs": [],
      "name": "getEarnings",
      "outputs": [
        {
          "internalType": "uint256",
          "name": "",
          "type": "uint256"
        }
      ],
      "stateMutability": "view",
      "type": "function"
    },
    {
      "inputs": [],
      "name": "owner",
      "outputs": [
        {
          "internalType": "address payable",
          "name": "",
          "type": "address"
        }
      ],
      "stateMutability": "view",
      "type": "function"
    },
    {
      "inputs": [
        {
          "internalType": "uint256",
          "name": "_amount",
          "type": "uint256"
        }
      ],
      "name": "restock",
      "outputs": [],
      "stateMutability": "nonpayable",
      "type": "function"
    },
    {
      "inputs": [
        {
          "internalType": "address",
          "name": "_addr",
          "type": "address"
        }
      ],
      "name": "totalPurchasedByAddress",
      "outputs": [
        {
          "internalType": "uint256",
          "name": "",
          "type": "uint256"
        }
      ],
      "stateMutability": "view",
      "type": "function"
    },
    {
      "inputs": [
        {
          "internalType": "uint256",
          "name": "_amount",
          "type": "uint256"
        }
      ],
      "name": "withdrawFunds",
      "outputs": [],
      "stateMutability": "nonpayable",
      "type": "function"
    }
  ],
  "bytecode": "0x608060405234801561001057600080fd5b50336000806101000a81548173ffffffffffffffffffffffffffffffffffffffff021916908373ffffffffffffffffffffffffffffffffffffffff1602179055506064600160003073ffffffffffffffffffffffffffffffffffffffff1673ffffffffffffffffffffffffffffffffffffffff16815260200190815260200160002081905550610a3b806100a56000396000f3fe6080604052600436106100705760003560e01c80635579dc7b1161004e5780635579dc7b146100f75780638da5cb5b14610122578063906662321461014d578063c21a702a1461017857610070565b80630823b88d14610075578063155dd5ee146100b2578063211b79b6146100db575b600080fd5b34801561008157600080fd5b5061009c6004803603810190610097919061060f565b6101a1565b6040516100a991906107a6565b60405180910390f35b3480156100be57600080fd5b506100d960048036038101906100d49190610638565b6101ea565b005b6100f560048036038101906100f09190610638565b610305565b005b34801561010357600080fd5b5061010c61048b565b60405161011991906107a6565b60405180910390f35b34801561012e57600080fd5b506101376104d2565b604051610144919061070b565b60405180910390f35b34801561015957600080fd5b506101626104f6565b60405161016f91906107a6565b60405180910390f35b34801561018457600080fd5b5061019f600480360381019061019a9190610638565b6104fe565b005b6000600160008373ffffffffffffffffffffffffffffffffffffffff1673ffffffffffffffffffffffffffffffffffffffff168152602001908152602001600020549050919050565b3373ffffffffffffffffffffffffffffffffffffffff1660008054906101000a900473ffffffffffffffffffffffffffffffffffffffff1673ffffffffffffffffffffffffffffffffffffffff1614610278576040517f08c379a000000000000000000000000000000000000000000000000000000000815260040161026f90610746565b60405180910390fd5b804710156102bb576040517f08c379a00000000000000000000000000000000000000000000000000000000081526004016102b290610786565b60405180910390fd5b3373ffffffffffffffffffffffffffffffffffffffff166108fc829081150290604051600060405180830381858888f19350505050158015610301573d6000803e3d6000fd5b5050565b662386f26fc10000816103189190610828565b34101561035a576040517f08c379a000000000000000000000000000000000000000000000000000000000815260040161035190610726565b60405180910390fd5b80600160003073ffffffffffffffffffffffffffffffffffffffff1673ffffffffffffffffffffffffffffffffffffffff1681526020019081526020016000205410156103dc576040517f08c379a00000000000000000000000000000000000000000000000000000000081526004016103d390610766565b60405180910390fd5b80600160003073ffffffffffffffffffffffffffffffffffffffff1673ffffffffffffffffffffffffffffffffffffffff168152602001908152602001600020600082825461042b9190610882565b9250508190555080600160003373ffffffffffffffffffffffffffffffffffffffff1673ffffffffffffffffffffffffffffffffffffffff168152602001908152602001600020600082825461048191906107d2565b9250508190555050565b6000600160003073ffffffffffffffffffffffffffffffffffffffff1673ffffffffffffffffffffffffffffffffffffffff16815260200190815260200160002054905090565b60008054906101000a900473ffffffffffffffffffffffffffffffffffffffff1681565b600047905090565b3373ffffffffffffffffffffffffffffffffffffffff1660008054906101000a900473ffffffffffffffffffffffffffffffffffffffff1673ffffffffffffffffffffffffffffffffffffffff161461058c576040517f08c379a000000000000000000000000000000000000000000000000000000000815260040161058390610746565b60405180910390fd5b80600160003073ffffffffffffffffffffffffffffffffffffffff1673ffffffffffffffffffffffffffffffffffffffff16815260200190815260200160002060008282546105db91906107d2565b9250508190555050565b6000813590506105f4816109d7565b92915050565b600081359050610609816109ee565b92915050565b60006020828403121561062157600080fd5b600061062f848285016105e5565b91505092915050565b60006020828403121561064a57600080fd5b6000610658848285016105fa565b91505092915050565b61066a816108c8565b82525050565b600061067d6017836107c1565b915061068882610933565b602082019050919050565b60006106a06015836107c1565b91506106ab8261095c565b602082019050919050565b60006106c36017836107c1565b91506106ce82610985565b602082019050919050565b60006106e6601a836107c1565b91506106f1826109ae565b602082019050919050565b610705816108fa565b82525050565b60006020820190506107206000830184610661565b92915050565b6000602082019050818103600083015261073f81610670565b9050919050565b6000602082019050818103600083015261075f81610693565b9050919050565b6000602082019050818103600083015261077f816106b6565b9050919050565b6000602082019050818103600083015261079f816106d9565b9050919050565b60006020820190506107bb60008301846106fc565b92915050565b600082825260208201905092915050565b60006107dd826108fa565b91506107e8836108fa565b9250827fffffffffffffffffffffffffffffffffffffffffffffffffffffffffffffffff0382111561081d5761081c610904565b5b828201905092915050565b6000610833826108fa565b915061083e836108fa565b9250817fffffffffffffffffffffffffffffffffffffffffffffffffffffffffffffffff048311821515161561087757610876610904565b5b828202905092915050565b600061088d826108fa565b9150610898836108fa565b9250828210156108ab576108aa610904565b5b828203905092915050565b60006108c1826108da565b9050919050565b60006108d3826108da565b9050919050565b600073ffffffffffffffffffffffffffffffffffffffff82169050919050565b6000819050919050565b7f4e487b7100000000000000000000000000000000000000000000000000000000600052601160045260246000fd5b7f53656e64206d6f72652065746820746f20627579206974000000000000000000600082015250565b7f596f7520617265206e6f7420746865204f776e65720000000000000000000000600082015250565b7f4e6f7420656e6f756768742063616e6479206c65667420000000000000000000600082015250565b7f5769746864726177696e67206d6f7265207468616e2073616c65000000000000600082015250565b6109e0816108b6565b81146109eb57600080fd5b50565b6109f7816108fa565b8114610a0257600080fd5b5056fea26469706673582212203297db55f75f31f12e0a53606664af05d74940eb0463852d9e1242241c9740cb64736f6c63430008040033",
  "linkReferences": {},
  "deployedLinkReferences": {}
}