{
  "_format": "hh-sol-artifact-1",
  "contractName": "WavePortal",
  "sourceName": "contracts/WavePortal.sol",
  "abi": [
    {
      "inputs": [],
      "stateMutability": "payable",
      "type": "constructor"
    },
    {
      "anonymous": false,
      "inputs": [
        {
          "indexed": true,
          "internalType": "address",
          "name": "from",
          "type": "address"
        },
        {
          "indexed": false,
          "internalType": "uint256",
          "name": "timeStamp",
          "type": "uint256"
        },
        {
          "indexed": false,
          "internalType": "string",
          "name": "message",
          "type": "string"
        }
      ],
      "name": "RepliesComment",
      "type": "event"
    },
    {
      "inputs": [],
      "name": "getTotalWavesCount",
      "outputs": [
        {
          "internalType": "uint256",
          "name": "",
          "type": "uint256"
        }
      ],
      "stateMutability": "view",
      "type": "function"
    },
    {
      "inputs": [],
      "name": "getWaves",
      "outputs": [
        {
          "components": [
            {
              "internalType": "address",
              "name": "waver",
              "type": "address"
            },
            {
              "internalType": "string",
              "name": "message",
              "type": "string"
            },
            {
              "internalType": "uint256",
              "name": "timestamp",
              "type": "uint256"
            }
          ],
          "internalType": "struct WavePortal.Wave[]",
          "name": "",
          "type": "tuple[]"
        }
      ],
      "stateMutability": "view",
      "type": "function"
    },
    {
      "inputs": [
        {
          "internalType": "address",
          "name": "",
          "type": "address"
        }
      ],
      "name": "lastWaveAt",
      "outputs": [
        {
          "internalType": "uint256",
          "name": "",
          "type": "uint256"
        }
      ],
      "stateMutability": "view",
      "type": "function"
    },
    {
      "inputs": [],
      "name": "owner",
      "outputs": [
        {
          "internalType": "address",
          "name": "",
          "type": "address"
        }
      ],
      "stateMutability": "view",
      "type": "function"
    },
    {
      "inputs": [
        {
          "internalType": "string",
          "name": "_message",
          "type": "string"
        }
      ],
      "name": "wave",
      "outputs": [],
      "stateMutability": "nonpayable",
      "type": "function"
    }
  ],
  "bytecode": "0x60806040526200004f6040518060400160405280601a81526020017f596f202c204920616d206120736d61727420636f6e7472616374000000000000815250620000b860201b620006981760201c565b33600160006101000a81548173ffffffffffffffffffffffffffffffffffffffff021916908373ffffffffffffffffffffffffffffffffffffffff16021790555060644442620000a09190620001bd565b620000ac919062000249565b60028190555062000349565b6200015881604051602401620000cf919062000325565b6040516020818303038152906040527f41304fac000000000000000000000000000000000000000000000000000000007bffffffffffffffffffffffffffffffffffffffffffffffffffffffff19166020820180517bffffffffffffffffffffffffffffffffffffffffffffffffffffffff83818316178352505050506200015b60201b60201c565b50565b60008151905060006a636f6e736f6c652e6c6f679050602083016000808483855afa5050505050565b6000819050919050565b7f4e487b7100000000000000000000000000000000000000000000000000000000600052601160045260246000fd5b6000620001ca8262000184565b9150620001d78362000184565b9250827fffffffffffffffffffffffffffffffffffffffffffffffffffffffffffffffff038211156200020f576200020e6200018e565b5b828201905092915050565b7f4e487b7100000000000000000000000000000000000000000000000000000000600052601260045260246000fd5b6000620002568262000184565b9150620002638362000184565b9250826200027657620002756200021a565b5b828206905092915050565b600081519050919050565b600082825260208201905092915050565b60005b83811015620002bd578082015181840152602081019050620002a0565b83811115620002cd576000848401525b50505050565b6000601f19601f8301169050919050565b6000620002f18262000281565b620002fd81856200028c565b93506200030f8185602086016200029d565b6200031a81620002d3565b840191505092915050565b60006020820190508181036000830152620003418184620002e4565b905092915050565b6111e980620003596000396000f3fe608060405234801561001057600080fd5b50600436106100575760003560e01c8063449d46c01461005c5780638da5cb5b146100785780639d9e7ef514610096578063a9d42f7e146100b4578063cb199503146100d2575b600080fd5b61007660048036038101906100719190610a8f565b610102565b005b6100806104be565b60405161008d9190610b19565b60405180910390f35b61009e6104e4565b6040516100ab9190610b4d565b60405180910390f35b6100bc61052f565b6040516100c99190610d20565b60405180910390f35b6100ec60048036038101906100e79190610d6e565b610680565b6040516100f99190610b4d565b60405180910390f35b42610384600460003373ffffffffffffffffffffffffffffffffffffffff1673ffffffffffffffffffffffffffffffffffffffff168152602001908152602001600020546101509190610dca565b10610190576040517f08c379a000000000000000000000000000000000000000000000000000000000815260040161018790610e7d565b60405180910390fd5b42600460003373ffffffffffffffffffffffffffffffffffffffff1673ffffffffffffffffffffffffffffffffffffffff1681526020019081526020016000208190555060016000808282546101e69190610dca565b9250508190555061022c6040518060400160405280601881526020017f48657920796f75206a75737420776176656420746f206d65000000000000000081525033610731565b600360405180606001604052803373ffffffffffffffffffffffffffffffffffffffff16815260200183815260200142815250908060018154018082558091505060019003906000526020600020906003020160009091909190915060008201518160000160006101000a81548173ffffffffffffffffffffffffffffffffffffffff021916908373ffffffffffffffffffffffffffffffffffffffff16021790555060208201518160010190805190602001906102eb929190610892565b50604082015181600201555050606460025442446103099190610dca565b6103139190610dca565b61031d9190610ecc565b6002819055506103646040518060400160405280601681526020017f52616e646f6d20232067656e6572617465643a202564000000000000000000008152506002546107cd565b60326002541161046b576000655af3107a40009050478111156103bc576040517f08c379a00000000000000000000000000000000000000000000000000000000081526004016103b390610f6f565b60405180910390fd5b60003373ffffffffffffffffffffffffffffffffffffffff16826040516103e290610fc0565b60006040518083038185875af1925050503d806000811461041f576040519150601f19603f3d011682016040523d82523d6000602084013e610424565b606091505b5050905080610468576040517f08c379a000000000000000000000000000000000000000000000000000000000815260040161045f90611047565b60405180910390fd5b50505b3373ffffffffffffffffffffffffffffffffffffffff167f2ec3e496b3919ea5536a1e5776a88314dbbb0e7abe4ea5148801f564a439800442836040516104b39291906110a0565b60405180910390a250565b600160009054906101000a900473ffffffffffffffffffffffffffffffffffffffff1681565b60006105276040518060400160405280601781526020017f5765206861766520256420746f74616c207761766573210000000000000000008152506000546107cd565b600054905090565b60606003805480602002602001604051908101604052809291908181526020016000905b8282101561067757838290600052602060002090600302016040518060600160405290816000820160009054906101000a900473ffffffffffffffffffffffffffffffffffffffff1673ffffffffffffffffffffffffffffffffffffffff1673ffffffffffffffffffffffffffffffffffffffff1681526020016001820180546105dc906110ff565b80601f0160208091040260200160405190810160405280929190818152602001828054610608906110ff565b80156106555780601f1061062a57610100808354040283529160200191610655565b820191906000526020600020905b81548152906001019060200180831161063857829003601f168201915b5050505050815260200160028201548152505081526020019060010190610553565b50505050905090565b60046020528060005260406000206000915090505481565b61072e816040516024016106ac9190611131565b6040516020818303038152906040527f41304fac000000000000000000000000000000000000000000000000000000007bffffffffffffffffffffffffffffffffffffffffffffffffffffffff19166020820180517bffffffffffffffffffffffffffffffffffffffffffffffffffffffff8381831617835250505050610869565b50565b6107c98282604051602401610747929190611153565b6040516020818303038152906040527f319af333000000000000000000000000000000000000000000000000000000007bffffffffffffffffffffffffffffffffffffffffffffffffffffffff19166020820180517bffffffffffffffffffffffffffffffffffffffffffffffffffffffff8381831617835250505050610869565b5050565b61086582826040516024016107e3929190611183565b6040516020818303038152906040527f9710a9d0000000000000000000000000000000000000000000000000000000007bffffffffffffffffffffffffffffffffffffffffffffffffffffffff19166020820180517bffffffffffffffffffffffffffffffffffffffffffffffffffffffff8381831617835250505050610869565b5050565b60008151905060006a636f6e736f6c652e6c6f679050602083016000808483855afa5050505050565b82805461089e906110ff565b90600052602060002090601f0160209004810192826108c05760008555610907565b82601f106108d957805160ff1916838001178555610907565b82800160010185558215610907579182015b828111156109065782518255916020019190600101906108eb565b5b5090506109149190610918565b5090565b5b80821115610931576000816000905550600101610919565b5090565b6000604051905090565b600080fd5b600080fd5b600080fd5b600080fd5b6000601f19601f8301169050919050565b7f4e487b7100000000000000000000000000000000000000000000000000000000600052604160045260246000fd5b61099c82610953565b810181811067ffffffffffffffff821117156109bb576109ba610964565b5b80604052505050565b60006109ce610935565b90506109da8282610993565b919050565b600067ffffffffffffffff8211156109fa576109f9610964565b5b610a0382610953565b9050602081019050919050565b82818337600083830152505050565b6000610a32610a2d846109df565b6109c4565b905082815260208101848484011115610a4e57610a4d61094e565b5b610a59848285610a10565b509392505050565b600082601f830112610a7657610a75610949565b5b8135610a86848260208601610a1f565b91505092915050565b600060208284031215610aa557610aa461093f565b5b600082013567ffffffffffffffff811115610ac357610ac2610944565b5b610acf84828501610a61565b91505092915050565b600073ffffffffffffffffffffffffffffffffffffffff82169050919050565b6000610b0382610ad8565b9050919050565b610b1381610af8565b82525050565b6000602082019050610b2e6000830184610b0a565b92915050565b6000819050919050565b610b4781610b34565b82525050565b6000602082019050610b626000830184610b3e565b92915050565b600081519050919050565b600082825260208201905092915050565b6000819050602082019050919050565b610b9d81610af8565b82525050565b600081519050919050565b600082825260208201905092915050565b60005b83811015610bdd578082015181840152602081019050610bc2565b83811115610bec576000848401525b50505050565b6000610bfd82610ba3565b610c078185610bae565b9350610c17818560208601610bbf565b610c2081610953565b840191505092915050565b610c3481610b34565b82525050565b6000606083016000830151610c526000860182610b94565b5060208301518482036020860152610c6a8282610bf2565b9150506040830151610c7f6040860182610c2b565b508091505092915050565b6000610c968383610c3a565b905092915050565b6000602082019050919050565b6000610cb682610b68565b610cc08185610b73565b935083602082028501610cd285610b84565b8060005b85811015610d0e5784840389528151610cef8582610c8a565b9450610cfa83610c9e565b925060208a01995050600181019050610cd6565b50829750879550505050505092915050565b60006020820190508181036000830152610d3a8184610cab565b905092915050565b610d4b81610af8565b8114610d5657600080fd5b50565b600081359050610d6881610d42565b92915050565b600060208284031215610d8457610d8361093f565b5b6000610d9284828501610d59565b91505092915050565b7f4e487b7100000000000000000000000000000000000000000000000000000000600052601160045260246000fd5b6000610dd582610b34565b9150610de083610b34565b9250827fffffffffffffffffffffffffffffffffffffffffffffffffffffffffffffffff03821115610e1557610e14610d9b565b5b828201905092915050565b600082825260208201905092915050565b7f77616974203135206d696e757465732062726f00000000000000000000000000600082015250565b6000610e67601383610e20565b9150610e7282610e31565b602082019050919050565b60006020820190508181036000830152610e9681610e5a565b9050919050565b7f4e487b7100000000000000000000000000000000000000000000000000000000600052601260045260246000fd5b6000610ed782610b34565b9150610ee283610b34565b925082610ef257610ef1610e9d565b5b828206905092915050565b7f4e6f7420656e6f756768206d6f6e657920746f2073656e64205072696365204160008201527f6d6f756e74000000000000000000000000000000000000000000000000000000602082015250565b6000610f59602583610e20565b9150610f6482610efd565b604082019050919050565b60006020820190508181036000830152610f8881610f4c565b9050919050565b600081905092915050565b50565b6000610faa600083610f8f565b9150610fb582610f9a565b600082019050919050565b6000610fcb82610f9d565b9150819050919050565b7f4661696c656420746f207472616e7366657220746865207072697a6520616d6f60008201527f756e740000000000000000000000000000000000000000000000000000000000602082015250565b6000611031602383610e20565b915061103c82610fd5565b604082019050919050565b6000602082019050818103600083015261106081611024565b9050919050565b600061107282610ba3565b61107c8185610e20565b935061108c818560208601610bbf565b61109581610953565b840191505092915050565b60006040820190506110b56000830185610b3e565b81810360208301526110c78184611067565b90509392505050565b7f4e487b7100000000000000000000000000000000000000000000000000000000600052602260045260246000fd5b6000600282049050600182168061111757607f821691505b6020821081141561112b5761112a6110d0565b5b50919050565b6000602082019050818103600083015261114b8184611067565b905092915050565b6000604082019050818103600083015261116d8185611067565b905061117c6020830184610b0a565b9392505050565b6000604082019050818103600083015261119d8185611067565b90506111ac6020830184610b3e565b939250505056fea26469706673582212201bb2ee477e483d3a12679fafa00f480695c8296be1307f6bf85c746f2a5a11e164736f6c63430008080033",
  "linkReferences": {},
  "deployedLinkReferences": {}
}