{
  "_format": "hh-sol-artifact-1",
  "contractName": "Voting",
  "sourceName": "contracts/Voting.sol",
  "abi": [
    {
      "inputs": [],
      "stateMutability": "nonpayable",
      "type": "constructor"
    },
    {
      "anonymous": false,
      "inputs": [
        {
          "indexed": false,
          "internalType": "address",
          "name": "",
          "type": "address"
        }
      ],
      "name": "VotedAddress",
      "type": "event"
    },
    {
      "inputs": [
        {
          "internalType": "string",
          "name": "_name",
          "type": "string"
        },
        {
          "internalType": "string",
          "name": "_symbolUrl",
          "type": "string"
        }
      ],
      "name": "addCandidate",
      "outputs": [],
      "stateMutability": "nonpayable",
      "type": "function"
    },
    {
      "inputs": [
        {
          "internalType": "uint256",
          "name": "_index",
          "type": "uint256"
        }
      ],
      "name": "disqualifyCandidate",
      "outputs": [],
      "stateMutability": "nonpayable",
      "type": "function"
    },
    {
      "inputs": [],
      "name": "electionCommissioner",
      "outputs": [
        {
          "internalType": "address",
          "name": "",
          "type": "address"
        }
      ],
      "stateMutability": "view",
      "type": "function"
    },
    {
      "inputs": [],
      "name": "getCandidate",
      "outputs": [
        {
          "components": [
            {
              "internalType": "string",
              "name": "name",
              "type": "string"
            },
            {
              "internalType": "string",
              "name": "electionSymbol",
              "type": "string"
            },
            {
              "internalType": "uint256",
              "name": "voteCount",
              "type": "uint256"
            }
          ],
          "internalType": "struct Voting.Candidate[]",
          "name": "",
          "type": "tuple[]"
        }
      ],
      "stateMutability": "view",
      "type": "function"
    },
    {
      "inputs": [
        {
          "internalType": "uint256",
          "name": "_index",
          "type": "uint256"
        }
      ],
      "name": "vote",
      "outputs": [],
      "stateMutability": "nonpayable",
      "type": "function"
    }
  ],
  "bytecode": "0x608060405234801561001057600080fd5b50336000806101000a81548173ffffffffffffffffffffffffffffffffffffffff021916908373ffffffffffffffffffffffffffffffffffffffff160217905550610efd806100606000396000f3fe608060405234801561001057600080fd5b50600436106100575760003560e01c80630121b93f1461005c5780631bdbb2ab1461007857806326541b561461009657806370218b85146100b2578063c4652e6a146100d0575b600080fd5b6100766004803603810190610071919061085a565b6100ec565b005b61008061024c565b60405161008d91906108c8565b60405180910390f35b6100b060048036038101906100ab9190610a29565b610270565b005b6100ba61038f565b6040516100c79190610c51565b60405180910390f35b6100ea60048036038101906100e5919061085a565b61051c565b005b60001515600260003373ffffffffffffffffffffffffffffffffffffffff1673ffffffffffffffffffffffffffffffffffffffff16815260200190815260200160002060009054906101000a900460ff1615151461017f576040517f08c379a000000000000000000000000000000000000000000000000000000000815260040161017690610cd0565b60405180910390fd5b6001600260003373ffffffffffffffffffffffffffffffffffffffff1673ffffffffffffffffffffffffffffffffffffffff16815260200190815260200160002060006101000a81548160ff021916908315150217905550600181815481106101eb576101ea610cf0565b5b9060005260206000209060030201600201600081548092919061020d90610d4e565b91905055507f5967f65162c10202312925bb903326f71db02dd0d61d521877dae67ecfb798c93360405161024191906108c8565b60405180910390a150565b60008054906101000a900473ffffffffffffffffffffffffffffffffffffffff1681565b60008054906101000a900473ffffffffffffffffffffffffffffffffffffffff1673ffffffffffffffffffffffffffffffffffffffff163373ffffffffffffffffffffffffffffffffffffffff16146102fe576040517f08c379a00000000000000000000000000000000000000000000000000000000081526004016102f590610de3565b60405180910390fd5b600160405180606001604052808481526020018381526020016000815250908060018154018082558091505060019003906000526020600020906003020160009091909190915060008201518160000190805190602001906103619291906106a0565b50602082015181600101908051906020019061037e9291906106a0565b506040820151816002015550505050565b60606001805480602002602001604051908101604052809291908181526020016000905b8282101561051357838290600052602060002090600302016040518060600160405290816000820180546103e690610e32565b80601f016020809104026020016040519081016040528092919081815260200182805461041290610e32565b801561045f5780601f106104345761010080835404028352916020019161045f565b820191906000526020600020905b81548152906001019060200180831161044257829003601f168201915b5050505050815260200160018201805461047890610e32565b80601f01602080910402602001604051908101604052809291908181526020018280546104a490610e32565b80156104f15780601f106104c6576101008083540402835291602001916104f1565b820191906000526020600020905b8154815290600101906020018083116104d457829003601f168201915b50505050508152602001600282015481525050815260200190600101906103b3565b50505050905090565b60008054906101000a900473ffffffffffffffffffffffffffffffffffffffff1673ffffffffffffffffffffffffffffffffffffffff163373ffffffffffffffffffffffffffffffffffffffff16146105aa576040517f08c379a00000000000000000000000000000000000000000000000000000000081526004016105a190610de3565b60405180910390fd5b60018080805490506105bc9190610e64565b815481106105cd576105cc610cf0565b5b9060005260206000209060030201600182815481106105ef576105ee610cf0565b5b9060005260206000209060030201600082018160000190805461061190610e32565b61061c929190610726565b50600182018160010190805461063190610e32565b61063c929190610726565b5060028201548160020155905050600180548061065c5761065b610e98565b5b60019003818190600052602060002090600302016000808201600061068191906107b3565b60018201600061069191906107b3565b60028201600090555050905550565b8280546106ac90610e32565b90600052602060002090601f0160209004810192826106ce5760008555610715565b82601f106106e757805160ff1916838001178555610715565b82800160010185558215610715579182015b828111156107145782518255916020019190600101906106f9565b5b50905061072291906107f3565b5090565b82805461073290610e32565b90600052602060002090601f01602090048101928261075457600085556107a2565b82601f1061076557805485556107a2565b828001600101855582156107a257600052602060002091601f016020900482015b828111156107a1578254825591600101919060010190610786565b5b5090506107af91906107f3565b5090565b5080546107bf90610e32565b6000825580601f106107d157506107f0565b601f0160209004906000526020600020908101906107ef91906107f3565b5b50565b5b8082111561080c5760008160009055506001016107f4565b5090565b6000604051905090565b600080fd5b600080fd5b6000819050919050565b61083781610824565b811461084257600080fd5b50565b6000813590506108548161082e565b92915050565b6000602082840312156108705761086f61081a565b5b600061087e84828501610845565b91505092915050565b600073ffffffffffffffffffffffffffffffffffffffff82169050919050565b60006108b282610887565b9050919050565b6108c2816108a7565b82525050565b60006020820190506108dd60008301846108b9565b92915050565b600080fd5b600080fd5b6000601f19601f8301169050919050565b7f4e487b7100000000000000000000000000000000000000000000000000000000600052604160045260246000fd5b610936826108ed565b810181811067ffffffffffffffff82111715610955576109546108fe565b5b80604052505050565b6000610968610810565b9050610974828261092d565b919050565b600067ffffffffffffffff821115610994576109936108fe565b5b61099d826108ed565b9050602081019050919050565b82818337600083830152505050565b60006109cc6109c784610979565b61095e565b9050828152602081018484840111156109e8576109e76108e8565b5b6109f38482856109aa565b509392505050565b600082601f830112610a1057610a0f6108e3565b5b8135610a208482602086016109b9565b91505092915050565b60008060408385031215610a4057610a3f61081a565b5b600083013567ffffffffffffffff811115610a5e57610a5d61081f565b5b610a6a858286016109fb565b925050602083013567ffffffffffffffff811115610a8b57610a8a61081f565b5b610a97858286016109fb565b9150509250929050565b600081519050919050565b600082825260208201905092915050565b6000819050602082019050919050565b600081519050919050565b600082825260208201905092915050565b60005b83811015610b07578082015181840152602081019050610aec565b83811115610b16576000848401525b50505050565b6000610b2782610acd565b610b318185610ad8565b9350610b41818560208601610ae9565b610b4a816108ed565b840191505092915050565b610b5e81610824565b82525050565b60006060830160008301518482036000860152610b818282610b1c565b91505060208301518482036020860152610b9b8282610b1c565b9150506040830151610bb06040860182610b55565b508091505092915050565b6000610bc78383610b64565b905092915050565b6000602082019050919050565b6000610be782610aa1565b610bf18185610aac565b935083602082028501610c0385610abd565b8060005b85811015610c3f5784840389528151610c208582610bbb565b9450610c2b83610bcf565b925060208a01995050600181019050610c07565b50829750879550505050505092915050565b60006020820190508181036000830152610c6b8184610bdc565b905092915050565b600082825260208201905092915050565b7f416c726561647920566f74656400000000000000000000000000000000000000600082015250565b6000610cba600d83610c73565b9150610cc582610c84565b602082019050919050565b60006020820190508181036000830152610ce981610cad565b9050919050565b7f4e487b7100000000000000000000000000000000000000000000000000000000600052603260045260246000fd5b7f4e487b7100000000000000000000000000000000000000000000000000000000600052601160045260246000fd5b6000610d5982610824565b91507fffffffffffffffffffffffffffffffffffffffffffffffffffffffffffffffff821415610d8c57610d8b610d1f565b5b600182019050919050565b7f596f7520617265204e6f7420436f6d6d697373696f6e65720000000000000000600082015250565b6000610dcd601883610c73565b9150610dd882610d97565b602082019050919050565b60006020820190508181036000830152610dfc81610dc0565b9050919050565b7f4e487b7100000000000000000000000000000000000000000000000000000000600052602260045260246000fd5b60006002820490506001821680610e4a57607f821691505b60208210811415610e5e57610e5d610e03565b5b50919050565b6000610e6f82610824565b9150610e7a83610824565b925082821015610e8d57610e8c610d1f565b5b828203905092915050565b7f4e487b7100000000000000000000000000000000000000000000000000000000600052603160045260246000fdfea2646970667358221220ffe9c0ab10a3111f05b43a3ea14388432041f79ae1fe97ddd0f30f93e68514e764736f6c63430008090033",
  "linkReferences": {},
  "deployedLinkReferences": {}
}