{
  "_format": "hh-sol-artifact-1",
  "contractName": "Notes",
  "sourceName": "contracts/Notes.sol",
  "abi": [
    {
      "inputs": [],
      "stateMutability": "nonpayable",
      "type": "constructor"
    },
    {
      "inputs": [
        {
          "internalType": "uint256",
          "name": "_index",
          "type": "uint256"
        }
      ],
      "name": "deleteit",
      "outputs": [],
      "stateMutability": "nonpayable",
      "type": "function"
    },
    {
      "inputs": [],
      "name": "getNotesArr",
      "outputs": [
        {
          "components": [
            {
              "internalType": "string",
              "name": "title",
              "type": "string"
            },
            {
              "internalType": "string",
              "name": "description",
              "type": "string"
            }
          ],
          "internalType": "struct Notes.Note[]",
          "name": "",
          "type": "tuple[]"
        }
      ],
      "stateMutability": "view",
      "type": "function"
    },
    {
      "inputs": [],
      "name": "getTotalNotes",
      "outputs": [
        {
          "internalType": "uint256",
          "name": "",
          "type": "uint256"
        }
      ],
      "stateMutability": "view",
      "type": "function"
    },
    {
      "inputs": [
        {
          "internalType": "string",
          "name": "_title",
          "type": "string"
        },
        {
          "internalType": "string",
          "name": "_description",
          "type": "string"
        }
      ],
      "name": "gettingNotes",
      "outputs": [],
      "stateMutability": "nonpayable",
      "type": "function"
    },
    {
      "inputs": [
        {
          "internalType": "uint256",
          "name": "",
          "type": "uint256"
        }
      ],
      "name": "notes",
      "outputs": [
        {
          "internalType": "string",
          "name": "title",
          "type": "string"
        },
        {
          "internalType": "string",
          "name": "description",
          "type": "string"
        }
      ],
      "stateMutability": "view",
      "type": "function"
    },
    {
      "inputs": [],
      "name": "owner",
      "outputs": [
        {
          "internalType": "address",
          "name": "",
          "type": "address"
        }
      ],
      "stateMutability": "view",
      "type": "function"
    }
  ],
  "bytecode": "0x608060405234801561001057600080fd5b50336000806101000a81548173ffffffffffffffffffffffffffffffffffffffff021916908373ffffffffffffffffffffffffffffffffffffffff160217905550610b7f806100606000396000f3fe608060405234801561001057600080fd5b50600436106100625760003560e01c806306a864f11461006757806323c2ea481461008557806361c3a7e6146100a35780638da5cb5b146100d4578063a42e7680146100f2578063c49cb8971461010e575b600080fd5b61006f61012a565b60405161007c919061076c565b60405180910390f35b61008d6102ad565b60405161009a91906107a7565b60405180910390f35b6100bd60048036038101906100b89190610802565b6102ba565b6040516100cb929190610879565b60405180910390f35b6100dc6103fe565b6040516100e991906108f1565b60405180910390f35b61010c60048036038101906101079190610802565b610422565b005b61012860048036038101906101239190610a41565b61046a565b005b60606001805480602002602001604051908101604052809291908181526020016000905b828210156102a4578382906000526020600020906002020160405180604001604052908160008201805461018190610ae8565b80601f01602080910402602001604051908101604052809291908181526020018280546101ad90610ae8565b80156101fa5780601f106101cf576101008083540402835291602001916101fa565b820191906000526020600020905b8154815290600101906020018083116101dd57829003601f168201915b5050505050815260200160018201805461021390610ae8565b80601f016020809104026020016040519081016040528092919081815260200182805461023f90610ae8565b801561028c5780601f106102615761010080835404028352916020019161028c565b820191906000526020600020905b81548152906001019060200180831161026f57829003601f168201915b5050505050815250508152602001906001019061014e565b50505050905090565b6000600180549050905090565b600181815481106102ca57600080fd5b90600052602060002090600202016000915090508060000180546102ed90610ae8565b80601f016020809104026020016040519081016040528092919081815260200182805461031990610ae8565b80156103665780601f1061033b57610100808354040283529160200191610366565b820191906000526020600020905b81548152906001019060200180831161034957829003601f168201915b50505050509080600101805461037b90610ae8565b80601f01602080910402602001604051908101604052809291908181526020018280546103a790610ae8565b80156103f45780601f106103c9576101008083540402835291602001916103f4565b820191906000526020600020905b8154815290600101906020018083116103d757829003601f168201915b5050505050905082565b60008054906101000a900473ffffffffffffffffffffffffffffffffffffffff1681565b6001818154811061043657610435610b1a565b5b90600052602060002090600202016000808201600061045591906104ea565b60018201600061046591906104ea565b505050565b6001604051806040016040528084815260200183815250908060018154018082558091505060019003906000526020600020906002020160009091909190915060008201518160000190805190602001906104c692919061052a565b5060208201518160010190805190602001906104e392919061052a565b5050505050565b5080546104f690610ae8565b6000825580601f106105085750610527565b601f01602090049060005260206000209081019061052691906105b0565b5b50565b82805461053690610ae8565b90600052602060002090601f016020900481019282610558576000855561059f565b82601f1061057157805160ff191683800117855561059f565b8280016001018555821561059f579182015b8281111561059e578251825591602001919060010190610583565b5b5090506105ac91906105b0565b5090565b5b808211156105c95760008160009055506001016105b1565b5090565b600081519050919050565b600082825260208201905092915050565b6000819050602082019050919050565b600081519050919050565b600082825260208201905092915050565b60005b83811015610633578082015181840152602081019050610618565b83811115610642576000848401525b50505050565b6000601f19601f8301169050919050565b6000610664826105f9565b61066e8185610604565b935061067e818560208601610615565b61068781610648565b840191505092915050565b600060408301600083015184820360008601526106af8282610659565b915050602083015184820360208601526106c98282610659565b9150508091505092915050565b60006106e28383610692565b905092915050565b6000602082019050919050565b6000610702826105cd565b61070c81856105d8565b93508360208202850161071e856105e9565b8060005b8581101561075a578484038952815161073b85826106d6565b9450610746836106ea565b925060208a01995050600181019050610722565b50829750879550505050505092915050565b6000602082019050818103600083015261078681846106f7565b905092915050565b6000819050919050565b6107a18161078e565b82525050565b60006020820190506107bc6000830184610798565b92915050565b6000604051905090565b600080fd5b600080fd5b6107df8161078e565b81146107ea57600080fd5b50565b6000813590506107fc816107d6565b92915050565b600060208284031215610818576108176107cc565b5b6000610826848285016107ed565b91505092915050565b600082825260208201905092915050565b600061084b826105f9565b610855818561082f565b9350610865818560208601610615565b61086e81610648565b840191505092915050565b600060408201905081810360008301526108938185610840565b905081810360208301526108a78184610840565b90509392505050565b600073ffffffffffffffffffffffffffffffffffffffff82169050919050565b60006108db826108b0565b9050919050565b6108eb816108d0565b82525050565b600060208201905061090660008301846108e2565b92915050565b600080fd5b600080fd5b7f4e487b7100000000000000000000000000000000000000000000000000000000600052604160045260246000fd5b61094e82610648565b810181811067ffffffffffffffff8211171561096d5761096c610916565b5b80604052505050565b60006109806107c2565b905061098c8282610945565b919050565b600067ffffffffffffffff8211156109ac576109ab610916565b5b6109b582610648565b9050602081019050919050565b82818337600083830152505050565b60006109e46109df84610991565b610976565b905082815260208101848484011115610a00576109ff610911565b5b610a0b8482856109c2565b509392505050565b600082601f830112610a2857610a2761090c565b5b8135610a388482602086016109d1565b91505092915050565b60008060408385031215610a5857610a576107cc565b5b600083013567ffffffffffffffff811115610a7657610a756107d1565b5b610a8285828601610a13565b925050602083013567ffffffffffffffff811115610aa357610aa26107d1565b5b610aaf85828601610a13565b9150509250929050565b7f4e487b7100000000000000000000000000000000000000000000000000000000600052602260045260246000fd5b60006002820490506001821680610b0057607f821691505b60208210811415610b1457610b13610ab9565b5b50919050565b7f4e487b7100000000000000000000000000000000000000000000000000000000600052603260045260246000fdfea2646970667358221220469fb07226ceae2a32e8f57252c67f05a85e1d4869e749ebc905934a6acf0da464736f6c634300080a0033",
  "linkReferences": {},
  "deployedLinkReferences": {}
}